{
  "_format": "hh-sol-artifact-1",
  "contractName": "Gallery",
  "sourceName": "contracts/Collection.sol",
  "abi": [
    {
      "inputs": [],
      "stateMutability": "nonpayable",
      "type": "constructor"
    },
    {
      "inputs": [
        {
          "internalType": "address",
          "name": "sender",
          "type": "address"
        },
        {
          "internalType": "uint256",
          "name": "tokenId",
          "type": "uint256"
        },
        {
          "internalType": "address",
          "name": "owner",
          "type": "address"
        }
      ],
      "name": "ERC721IncorrectOwner",
      "type": "error"
    },
    {
      "inputs": [
        {
          "internalType": "address",
          "name": "operator",
          "type": "address"
        },
        {
          "internalType": "uint256",
          "name": "tokenId",
          "type": "uint256"
        }
      ],
      "name": "ERC721InsufficientApproval",
      "type": "error"
    },
    {
      "inputs": [
        {
          "internalType": "address",
          "name": "approver",
          "type": "address"
        }
      ],
      "name": "ERC721InvalidApprover",
      "type": "error"
    },
    {
      "inputs": [
        {
          "internalType": "address",
          "name": "operator",
          "type": "address"
        }
      ],
      "name": "ERC721InvalidOperator",
      "type": "error"
    },
    {
      "inputs": [
        {
          "internalType": "address",
          "name": "owner",
          "type": "address"
        }
      ],
      "name": "ERC721InvalidOwner",
      "type": "error"
    },
    {
      "inputs": [
        {
          "internalType": "address",
          "name": "receiver",
          "type": "address"
        }
      ],
      "name": "ERC721InvalidReceiver",
      "type": "error"
    },
    {
      "inputs": [
        {
          "internalType": "address",
          "name": "sender",
          "type": "address"
        }
      ],
      "name": "ERC721InvalidSender",
      "type": "error"
    },
    {
      "inputs": [
        {
          "internalType": "uint256",
          "name": "tokenId",
          "type": "uint256"
        }
      ],
      "name": "ERC721NonexistentToken",
      "type": "error"
    },
    {
      "inputs": [
        {
          "internalType": "address",
          "name": "owner",
          "type": "address"
        }
      ],
      "name": "OwnableInvalidOwner",
      "type": "error"
    },
    {
      "inputs": [
        {
          "internalType": "address",
          "name": "account",
          "type": "address"
        }
      ],
      "name": "OwnableUnauthorizedAccount",
      "type": "error"
    },
    {
      "anonymous": false,
      "inputs": [
        {
          "indexed": true,
          "internalType": "address",
          "name": "owner",
          "type": "address"
        },
        {
          "indexed": true,
          "internalType": "address",
          "name": "approved",
          "type": "address"
        },
        {
          "indexed": true,
          "internalType": "uint256",
          "name": "tokenId",
          "type": "uint256"
        }
      ],
      "name": "Approval",
      "type": "event"
    },
    {
      "anonymous": false,
      "inputs": [
        {
          "indexed": true,
          "internalType": "address",
          "name": "owner",
          "type": "address"
        },
        {
          "indexed": true,
          "internalType": "address",
          "name": "operator",
          "type": "address"
        },
        {
          "indexed": false,
          "internalType": "bool",
          "name": "approved",
          "type": "bool"
        }
      ],
      "name": "ApprovalForAll",
      "type": "event"
    },
    {
      "anonymous": false,
      "inputs": [
        {
          "indexed": false,
          "internalType": "uint256",
          "name": "_fromTokenId",
          "type": "uint256"
        },
        {
          "indexed": false,
          "internalType": "uint256",
          "name": "_toTokenId",
          "type": "uint256"
        }
      ],
      "name": "BatchMetadataUpdate",
      "type": "event"
    },
    {
      "anonymous": false,
      "inputs": [
        {
          "indexed": false,
          "internalType": "uint256",
          "name": "_tokenId",
          "type": "uint256"
        }
      ],
      "name": "MetadataUpdate",
      "type": "event"
    },
    {
      "anonymous": false,
      "inputs": [
        {
          "indexed": true,
          "internalType": "address",
          "name": "previousOwner",
          "type": "address"
        },
        {
          "indexed": true,
          "internalType": "address",
          "name": "newOwner",
          "type": "address"
        }
      ],
      "name": "OwnershipTransferred",
      "type": "event"
    },
    {
      "anonymous": false,
      "inputs": [
        {
          "indexed": true,
          "internalType": "address",
          "name": "from",
          "type": "address"
        },
        {
          "indexed": true,
          "internalType": "address",
          "name": "to",
          "type": "address"
        },
        {
          "indexed": true,
          "internalType": "uint256",
          "name": "tokenId",
          "type": "uint256"
        }
      ],
      "name": "Transfer",
      "type": "event"
    },
    {
      "inputs": [
        {
          "internalType": "string",
          "name": "_productMetadataURI",
          "type": "string"
        },
        {
          "internalType": "uint256",
          "name": "price",
          "type": "uint256"
        }
      ],
      "name": "AddProduct",
      "outputs": [],
      "stateMutability": "nonpayable",
      "type": "function"
    },
    {
      "inputs": [],
      "name": "GetAvailableProducts",
      "outputs": [
        {
          "internalType": "string[]",
          "name": "",
          "type": "string[]"
        }
      ],
      "stateMutability": "view",
      "type": "function"
    },
    {
      "inputs": [],
      "name": "GetProductsBoughtBySender",
      "outputs": [
        {
          "internalType": "string[]",
          "name": "",
          "type": "string[]"
        },
        {
          "internalType": "bool[]",
          "name": "",
          "type": "bool[]"
        },
        {
          "internalType": "bool[]",
          "name": "",
          "type": "bool[]"
        },
        {
          "internalType": "bool[]",
          "name": "",
          "type": "bool[]"
        }
      ],
      "stateMutability": "view",
      "type": "function"
    },
    {
      "inputs": [],
      "name": "GetProductsListedBySender",
      "outputs": [
        {
          "internalType": "string[]",
          "name": "",
          "type": "string[]"
        },
        {
          "internalType": "bool[]",
          "name": "",
          "type": "bool[]"
        },
        {
          "internalType": "bool[]",
          "name": "",
          "type": "bool[]"
        },
        {
          "internalType": "bool[]",
          "name": "",
          "type": "bool[]"
        },
        {
          "internalType": "bool[]",
          "name": "",
          "type": "bool[]"
        }
      ],
      "stateMutability": "view",
      "type": "function"
    },
    {
      "inputs": [
        {
          "internalType": "string",
          "name": "uri",
          "type": "string"
        }
      ],
      "name": "ProductCancelled",
      "outputs": [],
      "stateMutability": "nonpayable",
      "type": "function"
    },
    {
      "inputs": [
        {
          "internalType": "string",
          "name": "uri",
          "type": "string"
        }
      ],
      "name": "ProductRecieved",
      "outputs": [],
      "stateMutability": "nonpayable",
      "type": "function"
    },
    {
      "inputs": [
        {
          "internalType": "address",
          "name": "to",
          "type": "address"
        },
        {
          "internalType": "uint256",
          "name": "tokenId",
          "type": "uint256"
        }
      ],
      "name": "approve",
      "outputs": [],
      "stateMutability": "nonpayable",
      "type": "function"
    },
    {
      "inputs": [
        {
          "internalType": "address",
          "name": "owner",
          "type": "address"
        }
      ],
      "name": "balanceOf",
      "outputs": [
        {
          "internalType": "uint256",
          "name": "",
          "type": "uint256"
        }
      ],
      "stateMutability": "view",
      "type": "function"
    },
    {
      "inputs": [
        {
          "internalType": "string",
          "name": "uri",
          "type": "string"
        }
      ],
      "name": "cancelTransaction",
      "outputs": [],
      "stateMutability": "nonpayable",
      "type": "function"
    },
    {
      "inputs": [
        {
          "internalType": "string",
          "name": "uri",
          "type": "string"
        }
      ],
      "name": "collectMoney",
      "outputs": [],
      "stateMutability": "nonpayable",
      "type": "function"
    },
    {
      "inputs": [
        {
          "internalType": "uint256",
          "name": "tokenId",
          "type": "uint256"
        }
      ],
      "name": "getApproved",
      "outputs": [
        {
          "internalType": "address",
          "name": "",
          "type": "address"
        }
      ],
      "stateMutability": "view",
      "type": "function"
    },
    {
      "inputs": [
        {
          "internalType": "address",
          "name": "owner",
          "type": "address"
        },
        {
          "internalType": "address",
          "name": "operator",
          "type": "address"
        }
      ],
      "name": "isApprovedForAll",
      "outputs": [
        {
          "internalType": "bool",
          "name": "",
          "type": "bool"
        }
      ],
      "stateMutability": "view",
      "type": "function"
    },
    {
      "inputs": [
        {
          "internalType": "uint256",
          "name": "",
          "type": "uint256"
        }
      ],
      "name": "listedProducts",
      "outputs": [
        {
          "internalType": "address",
          "name": "owner",
          "type": "address"
        },
        {
          "internalType": "address",
          "name": "buyer",
          "type": "address"
        },
        {
          "internalType": "uint256",
          "name": "price",
          "type": "uint256"
        },
        {
          "internalType": "uint256",
          "name": "tokenID",
          "type": "uint256"
        },
        {
          "internalType": "string",
          "name": "productMetadataURI",
          "type": "string"
        },
        {
          "internalType": "bool",
          "name": "isMinted",
          "type": "bool"
        },
        {
          "internalType": "bool",
          "name": "isMoneyCollected",
          "type": "bool"
        },
        {
          "internalType": "bool",
          "name": "recieved",
          "type": "bool"
        },
        {
          "internalType": "bool",
          "name": "cancelled",
          "type": "bool"
        }
      ],
      "stateMutability": "view",
      "type": "function"
    },
    {
      "inputs": [
        {
          "internalType": "string",
          "name": "tokenURI",
          "type": "string"
        }
      ],
      "name": "mintNFT",
      "outputs": [],
      "stateMutability": "payable",
      "type": "function"
    },
    {
      "inputs": [],
      "name": "name",
      "outputs": [
        {
          "internalType": "string",
          "name": "",
          "type": "string"
        }
      ],
      "stateMutability": "view",
      "type": "function"
    },
    {
      "inputs": [],
      "name": "owner",
      "outputs": [
        {
          "internalType": "address",
          "name": "",
          "type": "address"
        }
      ],
      "stateMutability": "view",
      "type": "function"
    },
    {
      "inputs": [
        {
          "internalType": "uint256",
          "name": "tokenId",
          "type": "uint256"
        }
      ],
      "name": "ownerOf",
      "outputs": [
        {
          "internalType": "address",
          "name": "",
          "type": "address"
        }
      ],
      "stateMutability": "view",
      "type": "function"
    },
    {
      "inputs": [],
      "name": "renounceOwnership",
      "outputs": [],
      "stateMutability": "nonpayable",
      "type": "function"
    },
    {
      "inputs": [
        {
          "internalType": "address",
          "name": "from",
          "type": "address"
        },
        {
          "internalType": "address",
          "name": "to",
          "type": "address"
        },
        {
          "internalType": "uint256",
          "name": "tokenId",
          "type": "uint256"
        }
      ],
      "name": "safeTransferFrom",
      "outputs": [],
      "stateMutability": "nonpayable",
      "type": "function"
    },
    {
      "inputs": [
        {
          "internalType": "address",
          "name": "from",
          "type": "address"
        },
        {
          "internalType": "address",
          "name": "to",
          "type": "address"
        },
        {
          "internalType": "uint256",
          "name": "tokenId",
          "type": "uint256"
        },
        {
          "internalType": "bytes",
          "name": "data",
          "type": "bytes"
        }
      ],
      "name": "safeTransferFrom",
      "outputs": [],
      "stateMutability": "nonpayable",
      "type": "function"
    },
    {
      "inputs": [
        {
          "internalType": "address",
          "name": "operator",
          "type": "address"
        },
        {
          "internalType": "bool",
          "name": "approved",
          "type": "bool"
        }
      ],
      "name": "setApprovalForAll",
      "outputs": [],
      "stateMutability": "nonpayable",
      "type": "function"
    },
    {
      "inputs": [
        {
          "internalType": "bytes4",
          "name": "interfaceId",
          "type": "bytes4"
        }
      ],
      "name": "supportsInterface",
      "outputs": [
        {
          "internalType": "bool",
          "name": "",
          "type": "bool"
        }
      ],
      "stateMutability": "view",
      "type": "function"
    },
    {
      "inputs": [],
      "name": "symbol",
      "outputs": [
        {
          "internalType": "string",
          "name": "",
          "type": "string"
        }
      ],
      "stateMutability": "view",
      "type": "function"
    },
    {
      "inputs": [
        {
          "internalType": "uint256",
          "name": "tokenId",
          "type": "uint256"
        }
      ],
      "name": "tokenURI",
      "outputs": [
        {
          "internalType": "string",
          "name": "",
          "type": "string"
        }
      ],
      "stateMutability": "view",
      "type": "function"
    },
    {
      "inputs": [
        {
          "internalType": "address",
          "name": "from",
          "type": "address"
        },
        {
          "internalType": "address",
          "name": "to",
          "type": "address"
        },
        {
          "internalType": "uint256",
          "name": "tokenId",
          "type": "uint256"
        }
      ],
      "name": "transferFrom",
      "outputs": [],
      "stateMutability": "nonpayable",
      "type": "function"
    },
    {
      "inputs": [
        {
          "internalType": "address",
          "name": "newOwner",
          "type": "address"
        }
      ],
      "name": "transferOwnership",
      "outputs": [],
      "stateMutability": "nonpayable",
      "type": "function"
    }
  ],
  "bytecode": "0x608060405260006008556000600b553480156200001b57600080fd5b50336040518060400160405280600b81526020017f4d61726b6574706c6163650000000000000000000000000000000000000000008152506040518060400160405280600381526020017f4e4654000000000000000000000000000000000000000000000000000000000081525081600090816200009a91906200047c565b508060019081620000ac91906200047c565b505050600073ffffffffffffffffffffffffffffffffffffffff168173ffffffffffffffffffffffffffffffffffffffff1603620001245760006040517f1e4fbdf70000000000000000000000000000000000000000000000000000000081526004016200011b9190620005a8565b60405180910390fd5b62000135816200013c60201b60201c565b50620005c5565b6000600760009054906101000a900473ffffffffffffffffffffffffffffffffffffffff16905081600760006101000a81548173ffffffffffffffffffffffffffffffffffffffff021916908373ffffffffffffffffffffffffffffffffffffffff1602179055508173ffffffffffffffffffffffffffffffffffffffff168173ffffffffffffffffffffffffffffffffffffffff167f8be0079c531659141344cd1fd0a4f28419497f9722a3daafe3b4186f6b6457e060405160405180910390a35050565b600081519050919050565b7f4e487b7100000000000000000000000000000000000000000000000000000000600052604160045260246000fd5b7f4e487b7100000000000000000000000000000000000000000000000000000000600052602260045260246000fd5b600060028204905060018216806200028457607f821691505b6020821081036200029a57620002996200023c565b5b50919050565b60008190508160005260206000209050919050565b60006020601f8301049050919050565b600082821b905092915050565b600060088302620003047fffffffffffffffffffffffffffffffffffffffffffffffffffffffffffffffff82620002c5565b620003108683620002c5565b95508019841693508086168417925050509392505050565b6000819050919050565b6000819050919050565b60006200035d62000357620003518462000328565b62000332565b62000328565b9050919050565b6000819050919050565b62000379836200033c565b62000391620003888262000364565b848454620002d2565b825550505050565b600090565b620003a862000399565b620003b58184846200036e565b505050565b5b81811015620003dd57620003d16000826200039e565b600181019050620003bb565b5050565b601f8211156200042c57620003f681620002a0565b6200040184620002b5565b8101602085101562000411578190505b620004296200042085620002b5565b830182620003ba565b50505b505050565b600082821c905092915050565b6000620004516000198460080262000431565b1980831691505092915050565b60006200046c83836200043e565b9150826002028217905092915050565b620004878262000202565b67ffffffffffffffff811115620004a357620004a26200020d565b5b620004af82546200026b565b620004bc828285620003e1565b600060209050601f831160018114620004f45760008415620004df578287015190505b620004eb85826200045e565b8655506200055b565b601f1984166200050486620002a0565b60005b828110156200052e5784890151825560018201915060208501945060208101905062000507565b868310156200054e57848901516200054a601f8916826200043e565b8355505b6001600288020188555050505b505050505050565b600073ffffffffffffffffffffffffffffffffffffffff82169050919050565b6000620005908262000563565b9050919050565b620005a28162000583565b82525050565b6000602082019050620005bf600083018462000597565b92915050565b61466580620005d56000396000f3fe6080604052600436106101815760003560e01c80637306ac40116100d1578063b88d4fde1161008a578063e65ea4b011610064578063e65ea4b01461058d578063e985e9c5146105b6578063f2fde38b146105f3578063fb37e8831461061c57610181565b8063b88d4fde146104e2578063c87b56dd1461050b578063ceadca131461054857610181565b80637306ac40146103e857806387394b47146104115780638da5cb5b1461043a57806395d89b41146104655780639d8938e414610490578063a22cb465146104b957610181565b80632f2ffd881161013e5780636352211e116101185780636352211e1461032957806366e251151461036657806370a0823114610394578063715018a6146103d157610181565b80632f2ffd88146102ac57806342842e0e146102d5578063578dc20f146102fe57610181565b806301ffc9a71461018657806306fdde03146101c3578063081812fc146101ee578063095ea7b31461022b57806323b872dd146102545780632c6d191f1461027d575b600080fd5b34801561019257600080fd5b506101ad60048036038101906101a891906135c8565b610638565b6040516101ba9190613610565b60405180910390f35b3480156101cf57600080fd5b506101d8610699565b6040516101e591906136bb565b60405180910390f35b3480156101fa57600080fd5b5061021560048036038101906102109190613713565b61072b565b6040516102229190613781565b60405180910390f35b34801561023757600080fd5b50610252600480360381019061024d91906137c8565b610747565b005b34801561026057600080fd5b5061027b60048036038101906102769190613808565b61075d565b005b34801561028957600080fd5b5061029261085f565b6040516102a3959493929190613a25565b60405180910390f35b3480156102b857600080fd5b506102d360048036038101906102ce9190613bd0565b610df6565b005b3480156102e157600080fd5b506102fc60048036038101906102f79190613808565b610ff6565b005b34801561030a57600080fd5b50610313611016565b6040516103209190613c19565b60405180910390f35b34801561033557600080fd5b50610350600480360381019061034b9190613713565b6111d1565b60405161035d9190613781565b60405180910390f35b34801561037257600080fd5b5061037b6111e3565b60405161038b9493929190613c3b565b60405180910390f35b3480156103a057600080fd5b506103bb60048036038101906103b69190613c9c565b6116a2565b6040516103c89190613cd8565b60405180910390f35b3480156103dd57600080fd5b506103e661175c565b005b3480156103f457600080fd5b5061040f600480360381019061040a9190613cf3565b611770565b005b34801561041d57600080fd5b5061043860048036038101906104339190613bd0565b61196f565b005b34801561044657600080fd5b5061044f611b66565b60405161045c9190613781565b60405180910390f35b34801561047157600080fd5b5061047a611b90565b60405161048791906136bb565b60405180910390f35b34801561049c57600080fd5b506104b760048036038101906104b29190613bd0565b611c22565b005b3480156104c557600080fd5b506104e060048036038101906104db9190613d7b565b611d41565b005b3480156104ee57600080fd5b5061050960048036038101906105049190613e5c565b611d57565b005b34801561051757600080fd5b50610532600480360381019061052d9190613713565b611d74565b60405161053f91906136bb565b60405180910390f35b34801561055457600080fd5b5061056f600480360381019061056a9190613713565b611e87565b60405161058499989796959493929190613edf565b60405180910390f35b34801561059957600080fd5b506105b460048036038101906105af9190613bd0565b611fe1565b005b3480156105c257600080fd5b506105dd60048036038101906105d89190613f73565b61213e565b6040516105ea9190613610565b60405180910390f35b3480156105ff57600080fd5b5061061a60048036038101906106159190613c9c565b6121d2565b005b61063660048036038101906106319190613bd0565b612258565b005b6000634906490660e01b7bffffffffffffffffffffffffffffffffffffffffffffffffffffffff1916827bffffffffffffffffffffffffffffffffffffffffffffffffffffffff1916148061069257506106918261243e565b5b9050919050565b6060600080546106a890613fe2565b80601f01602080910402602001604051908101604052809291908181526020018280546106d490613fe2565b80156107215780601f106106f657610100808354040283529160200191610721565b820191906000526020600020905b81548152906001019060200180831161070457829003601f168201915b5050505050905090565b600061073682612520565b50610740826125a8565b9050919050565b61075982826107546125e5565b6125ed565b5050565b600073ffffffffffffffffffffffffffffffffffffffff168273ffffffffffffffffffffffffffffffffffffffff16036107cf5760006040517f64a0ae920000000000000000000000000000000000000000000000000000000081526004016107c69190613781565b60405180910390fd5b60006107e383836107de6125e5565b6125ff565b90508373ffffffffffffffffffffffffffffffffffffffff168173ffffffffffffffffffffffffffffffffffffffff1614610859578382826040517f64283d7b00000000000000000000000000000000000000000000000000000000815260040161085093929190614013565b60405180910390fd5b50505050565b6060806060806060600060098054905067ffffffffffffffff81111561088857610887613aa5565b5b6040519080825280602002602001820160405280156108bb57816020015b60608152602001906001900390816108a65790505b509050600060098054905067ffffffffffffffff8111156108df576108de613aa5565b5b60405190808252806020026020018201604052801561090d5781602001602082028036833780820191505090505b509050600060098054905067ffffffffffffffff81111561093157610930613aa5565b5b60405190808252806020026020018201604052801561095f5781602001602082028036833780820191505090505b509050600060098054905067ffffffffffffffff81111561098357610982613aa5565b5b6040519080825280602002602001820160405280156109b15781602001602082028036833780820191505090505b509050600060098054905067ffffffffffffffff8111156109d5576109d4613aa5565b5b604051908082528060200260200182016040528015610a035781602001602082028036833780820191505090505b50905060005b600980549050811015610dda573373ffffffffffffffffffffffffffffffffffffffff1660098281548110610a4157610a4061404a565b5b906000526020600020906006020160000160009054906101000a900473ffffffffffffffffffffffffffffffffffffffff1673ffffffffffffffffffffffffffffffffffffffff16148015610ac6575060098181548110610aa557610aa461404a565b5b906000526020600020906006020160050160019054906101000a900460ff16155b15610cfc5760098181548110610adf57610ade61404a565b5b90600052602060002090600602016004018054610afb90613fe2565b80601f0160208091040260200160405190810160405280929190818152602001828054610b2790613fe2565b8015610b745780601f10610b4957610100808354040283529160200191610b74565b820191906000526020600020905b815481529060010190602001808311610b5757829003601f168201915b5050505050868281518110610b8c57610b8b61404a565b5b602002602001018190525060098181548110610bab57610baa61404a565b5b906000526020600020906006020160050160009054906101000a900460ff16858281518110610bdd57610bdc61404a565b5b60200260200101901515908115158152505060098181548110610c0357610c0261404a565b5b906000526020600020906006020160050160029054906101000a900460ff16848281518110610c3557610c3461404a565b5b60200260200101901515908115158152505060098181548110610c5b57610c5a61404a565b5b906000526020600020906006020160050160039054906101000a900460ff16838281518110610c8d57610c8c61404a565b5b60200260200101901515908115158152505060098181548110610cb357610cb261404a565b5b906000526020600020906006020160050160019054906101000a900460ff16828281518110610ce557610ce461404a565b5b602002602001019015159081151581525050610dc7565b60405180602001604052806000815250868281518110610d1f57610d1e61404a565b5b60200260200101819052506000858281518110610d3f57610d3e61404a565b5b6020026020010190151590811515815250506000848281518110610d6657610d6561404a565b5b6020026020010190151590811515815250506000838281518110610d8d57610d8c61404a565b5b6020026020010190151590811515815250506000828281518110610db457610db361404a565b5b6020026020010190151590811515815250505b8080610dd2906140a8565b915050610a09565b5084848484849950995099509950995050505050509091929394565b60005b600980549050811015610ff25781604051602001610e17919061412c565b6040516020818303038152906040528051906020012060098281548110610e4157610e4061404a565b5b9060005260206000209060060201600401604051602001610e6291906141db565b6040516020818303038152906040528051906020012003610fdf57610ebb6040518060400160405280600181526020017f4300000000000000000000000000000000000000000000000000000000000000815250612819565b600160098281548110610ed157610ed061404a565b5b906000526020600020906006020160050160016101000a81548160ff021916908315150217905550600060098281548110610f0f57610f0e61404a565b5b906000526020600020906006020160010160009054906101000a900473ffffffffffffffffffffffffffffffffffffffff1673ffffffffffffffffffffffffffffffffffffffff1660098381548110610f6b57610f6a61404a565b5b906000526020600020906006020160020154604051610f8990614223565b60006040518083038185875af1925050503d8060008114610fc6576040519150601f19603f3d011682016040523d82523d6000602084013e610fcb565b606091505b5050905080610fd957600080fd5b50610ff2565b8080610fea906140a8565b915050610df9565b5050565b61101183838360405180602001604052806000815250611d57565b505050565b6060600060098054905067ffffffffffffffff81111561103957611038613aa5565b5b60405190808252806020026020018201604052801561106c57816020015b60608152602001906001900390816110575790505b50905060005b6009805490508110156111c957600981815481106110935761109261404a565b5b906000526020600020906006020160050160009054906101000a900460ff1661118757600981815481106110ca576110c961404a565b5b906000526020600020906006020160040180546110e690613fe2565b80601f016020809104026020016040519081016040528092919081815260200182805461111290613fe2565b801561115f5780601f106111345761010080835404028352916020019161115f565b820191906000526020600020905b81548152906001019060200180831161114257829003601f168201915b50505050508282815181106111775761117661404a565b5b60200260200101819052506111b6565b604051806020016040528060008152508282815181106111aa576111a961404a565b5b60200260200101819052505b80806111c1906140a8565b915050611072565b508091505090565b60006111dc82612520565b9050919050565b606080606080600060098054905067ffffffffffffffff81111561120a57611209613aa5565b5b60405190808252806020026020018201604052801561123d57816020015b60608152602001906001900390816112285790505b509050600060098054905067ffffffffffffffff81111561126157611260613aa5565b5b60405190808252806020026020018201604052801561128f5781602001602082028036833780820191505090505b509050600060098054905067ffffffffffffffff8111156112b3576112b2613aa5565b5b6040519080825280602002602001820160405280156112e15781602001602082028036833780820191505090505b509050600060098054905067ffffffffffffffff81111561130557611304613aa5565b5b6040519080825280602002602001820160405280156113335781602001602082028036833780820191505090505b50905060005b60098054905081101561168b573373ffffffffffffffffffffffffffffffffffffffff16600982815481106113715761137061404a565b5b906000526020600020906006020160010160009054906101000a900473ffffffffffffffffffffffffffffffffffffffff1673ffffffffffffffffffffffffffffffffffffffff161480156113f65750600981815481106113d5576113d461404a565b5b906000526020600020906006020160050160019054906101000a900460ff16155b156115d4576009818154811061140f5761140e61404a565b5b9060005260206000209060060201600401805461142b90613fe2565b80601f016020809104026020016040519081016040528092919081815260200182805461145790613fe2565b80156114a45780601f10611479576101008083540402835291602001916114a4565b820191906000526020600020905b81548152906001019060200180831161148757829003601f168201915b50505050508582815181106114bc576114bb61404a565b5b6020026020010181905250600981815481106114db576114da61404a565b5b906000526020600020906006020160050160009054906101000a900460ff1684828151811061150d5761150c61404a565b5b602002602001019015159081151581525050600981815481106115335761153261404a565b5b906000526020600020906006020160050160029054906101000a900460ff168382815181106115655761156461404a565b5b6020026020010190151590811515815250506009818154811061158b5761158a61404a565b5b906000526020600020906006020160050160039054906101000a900460ff168282815181106115bd576115bc61404a565b5b602002602001019015159081151581525050611678565b604051806020016040528060008152508582815181106115f7576115f661404a565b5b602002602001018190525060008482815181106116175761161661404a565b5b602002602001019015159081151581525050600083828151811061163e5761163d61404a565b5b60200260200101901515908115158152505060008282815181106116655761166461404a565b5b6020026020010190151590811515815250505b8080611683906140a8565b915050611339565b508383838397509750975097505050505090919293565b60008073ffffffffffffffffffffffffffffffffffffffff168273ffffffffffffffffffffffffffffffffffffffff16036117155760006040517f89c62b6400000000000000000000000000000000000000000000000000000000815260040161170c9190613781565b60405180910390fd5b600360008373ffffffffffffffffffffffffffffffffffffffff1673ffffffffffffffffffffffffffffffffffffffff168152602001908152602001600020549050919050565b6117646128b2565b61176e6000612939565b565b60006040518061012001604052803373ffffffffffffffffffffffffffffffffffffffff168152602001600073ffffffffffffffffffffffffffffffffffffffff168152602001838152602001600860008154809291906117d0906140a8565b919050558152602001848152602001600015158152602001600015158152602001600015158152602001600015158152509050600981908060018154018082558091505060019003906000526020600020906006020160009091909190915060008201518160000160006101000a81548173ffffffffffffffffffffffffffffffffffffffff021916908373ffffffffffffffffffffffffffffffffffffffff16021790555060208201518160010160006101000a81548173ffffffffffffffffffffffffffffffffffffffff021916908373ffffffffffffffffffffffffffffffffffffffff160217905550604082015181600201556060820151816003015560808201518160040190816118e691906143cf565b5060a08201518160050160006101000a81548160ff02191690831515021790555060c08201518160050160016101000a81548160ff02191690831515021790555060e08201518160050160026101000a81548160ff0219169083151502179055506101008201518160050160036101000a81548160ff0219169083151502179055505050505050565b60005b600980549050811015611b625781604051602001611990919061412c565b60405160208183030381529060405280519060200120600982815481106119ba576119b961404a565b5b90600052602060002090600602016004016040516020016119db91906141db565b6040516020818303038152906040528051906020012003611b4f57611a346040518060400160405280600181526020017f4200000000000000000000000000000000000000000000000000000000000000815250612819565b60098181548110611a4857611a4761404a565b5b906000526020600020906006020160050160029054906101000a900460ff16611a7057600080fd5b600160098281548110611a8657611a8561404a565b5b906000526020600020906006020160050160016101000a81548160ff02191690831515021790555060003373ffffffffffffffffffffffffffffffffffffffff1660098381548110611adb57611ada61404a565b5b906000526020600020906006020160020154604051611af990614223565b60006040518083038185875af1925050503d8060008114611b36576040519150601f19603f3d011682016040523d82523d6000602084013e611b3b565b606091505b5050905080611b4957600080fd5b50611b62565b8080611b5a906140a8565b915050611972565b5050565b6000600760009054906101000a900473ffffffffffffffffffffffffffffffffffffffff16905090565b606060018054611b9f90613fe2565b80601f0160208091040260200160405190810160405280929190818152602001828054611bcb90613fe2565b8015611c185780601f10611bed57610100808354040283529160200191611c18565b820191906000526020600020905b815481529060010190602001808311611bfb57829003601f168201915b5050505050905090565b60005b600980549050811015611d3d5781604051602001611c43919061412c565b6040516020818303038152906040528051906020012060098281548110611c6d57611c6c61404a565b5b9060005260206000209060060201600401604051602001611c8e91906141db565b6040516020818303038152906040528051906020012003611d2a57611ce76040518060400160405280600181526020017f5a00000000000000000000000000000000000000000000000000000000000000815250612819565b600160098281548110611cfd57611cfc61404a565b5b906000526020600020906006020160050160026101000a81548160ff021916908315150217905550611d3d565b8080611d35906140a8565b915050611c25565b5050565b611d53611d4c6125e5565b83836129ff565b5050565b611d6284848461075d565b611d6e84848484612b6e565b50505050565b6060611d7f82612520565b506000600660008481526020019081526020016000208054611da090613fe2565b80601f0160208091040260200160405190810160405280929190818152602001828054611dcc90613fe2565b8015611e195780601f10611dee57610100808354040283529160200191611e19565b820191906000526020600020905b815481529060010190602001808311611dfc57829003601f168201915b505050505090506000611e2a612d25565b90506000815103611e3f578192505050611e82565b600082511115611e74578082604051602001611e5c9291906144a1565b60405160208183030381529060405292505050611e82565b611e7d84612d3c565b925050505b919050565b60098181548110611e9757600080fd5b90600052602060002090600602016000915090508060000160009054906101000a900473ffffffffffffffffffffffffffffffffffffffff16908060010160009054906101000a900473ffffffffffffffffffffffffffffffffffffffff1690806002015490806003015490806004018054611f1290613fe2565b80601f0160208091040260200160405190810160405280929190818152602001828054611f3e90613fe2565b8015611f8b5780601f10611f6057610100808354040283529160200191611f8b565b820191906000526020600020905b815481529060010190602001808311611f6e57829003601f168201915b5050505050908060050160009054906101000a900460ff16908060050160019054906101000a900460ff16908060050160029054906101000a900460ff16908060050160039054906101000a900460ff16905089565b60005b60098054905081101561213a5781604051602001612002919061412c565b604051602081830303815290604052805190602001206009828154811061202c5761202b61404a565b5b906000526020600020906006020160040160405160200161204d91906141db565b6040516020818303038152906040528051906020012003612127576120a66040518060400160405280600181526020017f4100000000000000000000000000000000000000000000000000000000000000815250612819565b6000600982815481106120bc576120bb61404a565b5b906000526020600020906006020160050160026101000a81548160ff0219169083151502179055506001600982815481106120fa576120f961404a565b5b906000526020600020906006020160050160036101000a81548160ff02191690831515021790555061213a565b8080612132906140a8565b915050611fe4565b5050565b6000600560008473ffffffffffffffffffffffffffffffffffffffff1673ffffffffffffffffffffffffffffffffffffffff16815260200190815260200160002060008373ffffffffffffffffffffffffffffffffffffffff1673ffffffffffffffffffffffffffffffffffffffff16815260200190815260200160002060009054906101000a900460ff16905092915050565b6121da6128b2565b600073ffffffffffffffffffffffffffffffffffffffff168173ffffffffffffffffffffffffffffffffffffffff160361224c5760006040517f1e4fbdf70000000000000000000000000000000000000000000000000000000081526004016122439190613781565b60405180910390fd5b61225581612939565b50565b6000805b600980549050811015612339578260405160200161227a919061412c565b60405160208183030381529060405280519060200120600982815481106122a4576122a361404a565b5b90600052602060002090600602016004016040516020016122c591906141db565b60405160208183030381529060405280519060200120036123265761231e6040518060400160405280600181526020017f5700000000000000000000000000000000000000000000000000000000000000815250612819565b809150612339565b8080612331906140a8565b91505061225c565b506001600982815481106123505761234f61404a565b5b906000526020600020906006020160050160006101000a81548160ff021916908315150217905550336009828154811061238d5761238c61404a565b5b906000526020600020906006020160010160006101000a81548173ffffffffffffffffffffffffffffffffffffffff021916908373ffffffffffffffffffffffffffffffffffffffff16021790555061240b33600983815481106123f4576123f361404a565b5b906000526020600020906006020160030154612da5565b61243a600982815481106124225761242161404a565b5b90600052602060002090600602016003015483612e9e565b5050565b60007f80ac58cd000000000000000000000000000000000000000000000000000000007bffffffffffffffffffffffffffffffffffffffffffffffffffffffff1916827bffffffffffffffffffffffffffffffffffffffffffffffffffffffff1916148061250957507f5b5e139f000000000000000000000000000000000000000000000000000000007bffffffffffffffffffffffffffffffffffffffffffffffffffffffff1916827bffffffffffffffffffffffffffffffffffffffffffffffffffffffff1916145b80612519575061251882612efa565b5b9050919050565b60008061252c83612f64565b9050600073ffffffffffffffffffffffffffffffffffffffff168173ffffffffffffffffffffffffffffffffffffffff160361259f57826040517f7e2732890000000000000000000000000000000000000000000000000000000081526004016125969190613cd8565b60405180910390fd5b80915050919050565b60006004600083815260200190815260200160002060009054906101000a900473ffffffffffffffffffffffffffffffffffffffff169050919050565b600033905090565b6125fa8383836001612fa1565b505050565b60008061260b84612f64565b9050600073ffffffffffffffffffffffffffffffffffffffff168373ffffffffffffffffffffffffffffffffffffffff161461264d5761264c818486613166565b5b600073ffffffffffffffffffffffffffffffffffffffff168173ffffffffffffffffffffffffffffffffffffffff16146126de5761268f600085600080612fa1565b6001600360008373ffffffffffffffffffffffffffffffffffffffff1673ffffffffffffffffffffffffffffffffffffffff168152602001908152602001600020600082825403925050819055505b600073ffffffffffffffffffffffffffffffffffffffff168573ffffffffffffffffffffffffffffffffffffffff1614612761576001600360008773ffffffffffffffffffffffffffffffffffffffff1673ffffffffffffffffffffffffffffffffffffffff168152602001908152602001600020600082825401925050819055505b846002600086815260200190815260200160002060006101000a81548173ffffffffffffffffffffffffffffffffffffffff021916908373ffffffffffffffffffffffffffffffffffffffff160217905550838573ffffffffffffffffffffffffffffffffffffffff168273ffffffffffffffffffffffffffffffffffffffff167fddf252ad1be2c89b69c2b068fc378daa952ba7f163c4a11628f55a4df523b3ef60405160405180910390a4809150509392505050565b6128af8160405160240161282d91906136bb565b6040516020818303038152906040527f41304fac000000000000000000000000000000000000000000000000000000007bffffffffffffffffffffffffffffffffffffffffffffffffffffffff19166020820180517bffffffffffffffffffffffffffffffffffffffffffffffffffffffff838183161783525050505061322a565b50565b6128ba6125e5565b73ffffffffffffffffffffffffffffffffffffffff166128d8611b66565b73ffffffffffffffffffffffffffffffffffffffff1614612937576128fb6125e5565b6040517f118cdaa700000000000000000000000000000000000000000000000000000000815260040161292e9190613781565b60405180910390fd5b565b6000600760009054906101000a900473ffffffffffffffffffffffffffffffffffffffff16905081600760006101000a81548173ffffffffffffffffffffffffffffffffffffffff021916908373ffffffffffffffffffffffffffffffffffffffff1602179055508173ffffffffffffffffffffffffffffffffffffffff168173ffffffffffffffffffffffffffffffffffffffff167f8be0079c531659141344cd1fd0a4f28419497f9722a3daafe3b4186f6b6457e060405160405180910390a35050565b600073ffffffffffffffffffffffffffffffffffffffff168273ffffffffffffffffffffffffffffffffffffffff1603612a7057816040517f5b08ba18000000000000000000000000000000000000000000000000000000008152600401612a679190613781565b60405180910390fd5b80600560008573ffffffffffffffffffffffffffffffffffffffff1673ffffffffffffffffffffffffffffffffffffffff16815260200190815260200160002060008473ffffffffffffffffffffffffffffffffffffffff1673ffffffffffffffffffffffffffffffffffffffff16815260200190815260200160002060006101000a81548160ff0219169083151502179055508173ffffffffffffffffffffffffffffffffffffffff168373ffffffffffffffffffffffffffffffffffffffff167f17307eab39ab6107e8899845ad3d59bd9653f200f220920489ca2b5937696c3183604051612b619190613610565b60405180910390a3505050565b60008373ffffffffffffffffffffffffffffffffffffffff163b1115612d1f578273ffffffffffffffffffffffffffffffffffffffff1663150b7a02612bb26125e5565b8685856040518563ffffffff1660e01b8152600401612bd4949392919061451a565b6020604051808303816000875af1925050508015612c1057506040513d601f19601f82011682018060405250810190612c0d919061457b565b60015b612c94573d8060008114612c40576040519150601f19603f3d011682016040523d82523d6000602084013e612c45565b606091505b506000815103612c8c57836040517f64a0ae92000000000000000000000000000000000000000000000000000000008152600401612c839190613781565b60405180910390fd5b805181602001fd5b63150b7a0260e01b7bffffffffffffffffffffffffffffffffffffffffffffffffffffffff1916817bffffffffffffffffffffffffffffffffffffffffffffffffffffffff191614612d1d57836040517f64a0ae92000000000000000000000000000000000000000000000000000000008152600401612d149190613781565b60405180910390fd5b505b50505050565b606060405180602001604052806000815250905090565b6060612d4782612520565b506000612d52612d25565b90506000815111612d725760405180602001604052806000815250612d9d565b80612d7c84613244565b604051602001612d8d9291906144a1565b6040516020818303038152906040525b915050919050565b600073ffffffffffffffffffffffffffffffffffffffff168273ffffffffffffffffffffffffffffffffffffffff1603612e175760006040517f64a0ae92000000000000000000000000000000000000000000000000000000008152600401612e0e9190613781565b60405180910390fd5b6000612e25838360006125ff565b9050600073ffffffffffffffffffffffffffffffffffffffff168173ffffffffffffffffffffffffffffffffffffffff1614612e995760006040517f73c6ac6e000000000000000000000000000000000000000000000000000000008152600401612e909190613781565b60405180910390fd5b505050565b80600660008481526020019081526020016000209081612ebe91906143cf565b507ff8e1a15aba9398e019f0b49df1a4fde98ee17ae345cb5f6b5e2c27f5033e8ce782604051612eee9190613cd8565b60405180910390a15050565b60007f01ffc9a7000000000000000000000000000000000000000000000000000000007bffffffffffffffffffffffffffffffffffffffffffffffffffffffff1916827bffffffffffffffffffffffffffffffffffffffffffffffffffffffff1916149050919050565b60006002600083815260200190815260200160002060009054906101000a900473ffffffffffffffffffffffffffffffffffffffff169050919050565b8080612fda5750600073ffffffffffffffffffffffffffffffffffffffff168273ffffffffffffffffffffffffffffffffffffffff1614155b1561310e576000612fea84612520565b9050600073ffffffffffffffffffffffffffffffffffffffff168373ffffffffffffffffffffffffffffffffffffffff161415801561305557508273ffffffffffffffffffffffffffffffffffffffff168173ffffffffffffffffffffffffffffffffffffffff1614155b80156130685750613066818461213e565b155b156130aa57826040517fa9fbf51f0000000000000000000000000000000000000000000000000000000081526004016130a19190613781565b60405180910390fd5b811561310c57838573ffffffffffffffffffffffffffffffffffffffff168273ffffffffffffffffffffffffffffffffffffffff167f8c5be1e5ebec7d5bd14f71427d1e84f3dd0314c0f7b2291e5b200ac8c7c3b92560405160405180910390a45b505b836004600085815260200190815260200160002060006101000a81548173ffffffffffffffffffffffffffffffffffffffff021916908373ffffffffffffffffffffffffffffffffffffffff16021790555050505050565b613171838383613312565b61322557600073ffffffffffffffffffffffffffffffffffffffff168373ffffffffffffffffffffffffffffffffffffffff16036131e657806040517f7e2732890000000000000000000000000000000000000000000000000000000081526004016131dd9190613cd8565b60405180910390fd5b81816040517f177e802f00000000000000000000000000000000000000000000000000000000815260040161321c9291906145a8565b60405180910390fd5b505050565b613241816132396133d36133f4565b63ffffffff16565b50565b606060006001613253846133ff565b01905060008167ffffffffffffffff81111561327257613271613aa5565b5b6040519080825280601f01601f1916602001820160405280156132a45781602001600182028036833780820191505090505b509050600082602001820190505b600115613307578080600190039150507f3031323334353637383961626364656600000000000000000000000000000000600a86061a8153600a85816132fb576132fa6145d1565b5b049450600085036132b2575b819350505050919050565b60008073ffffffffffffffffffffffffffffffffffffffff168373ffffffffffffffffffffffffffffffffffffffff16141580156133ca57508273ffffffffffffffffffffffffffffffffffffffff168473ffffffffffffffffffffffffffffffffffffffff16148061338b575061338a848461213e565b5b806133c957508273ffffffffffffffffffffffffffffffffffffffff166133b1836125a8565b73ffffffffffffffffffffffffffffffffffffffff16145b5b90509392505050565b60006a636f6e736f6c652e6c6f679050600080835160208501845afa505050565b613552819050919050565b600080600090507a184f03e93ff9f4daa797ed6e38ed64bf6a1f010000000000000000831061345d577a184f03e93ff9f4daa797ed6e38ed64bf6a1f0100000000000000008381613453576134526145d1565b5b0492506040810190505b6d04ee2d6d415b85acef8100000000831061349a576d04ee2d6d415b85acef810000000083816134905761348f6145d1565b5b0492506020810190505b662386f26fc1000083106134c957662386f26fc1000083816134bf576134be6145d1565b5b0492506010810190505b6305f5e10083106134f2576305f5e10083816134e8576134e76145d1565b5b0492506008810190505b612710831061351757612710838161350d5761350c6145d1565b5b0492506004810190505b6064831061353a57606483816135305761352f6145d1565b5b0492506002810190505b600a8310613549576001810190505b80915050919050565b61355a614600565b565b6000604051905090565b600080fd5b600080fd5b60007fffffffff0000000000000000000000000000000000000000000000000000000082169050919050565b6135a581613570565b81146135b057600080fd5b50565b6000813590506135c28161359c565b92915050565b6000602082840312156135de576135dd613566565b5b60006135ec848285016135b3565b91505092915050565b60008115159050919050565b61360a816135f5565b82525050565b60006020820190506136256000830184613601565b92915050565b600081519050919050565b600082825260208201905092915050565b60005b8381101561366557808201518184015260208101905061364a565b60008484015250505050565b6000601f19601f8301169050919050565b600061368d8261362b565b6136978185613636565b93506136a7818560208601613647565b6136b081613671565b840191505092915050565b600060208201905081810360008301526136d58184613682565b905092915050565b6000819050919050565b6136f0816136dd565b81146136fb57600080fd5b50565b60008135905061370d816136e7565b92915050565b60006020828403121561372957613728613566565b5b6000613737848285016136fe565b91505092915050565b600073ffffffffffffffffffffffffffffffffffffffff82169050919050565b600061376b82613740565b9050919050565b61377b81613760565b82525050565b60006020820190506137966000830184613772565b92915050565b6137a581613760565b81146137b057600080fd5b50565b6000813590506137c28161379c565b92915050565b600080604083850312156137df576137de613566565b5b60006137ed858286016137b3565b92505060206137fe858286016136fe565b9150509250929050565b60008060006060848603121561382157613820613566565b5b600061382f868287016137b3565b9350506020613840868287016137b3565b9250506040613851868287016136fe565b9150509250925092565b600081519050919050565b600082825260208201905092915050565b6000819050602082019050919050565b600082825260208201905092915050565b60006138a38261362b565b6138ad8185613887565b93506138bd818560208601613647565b6138c681613671565b840191505092915050565b60006138dd8383613898565b905092915050565b6000602082019050919050565b60006138fd8261385b565b6139078185613866565b93508360208202850161391985613877565b8060005b85811015613955578484038952815161393685826138d1565b9450613941836138e5565b925060208a0199505060018101905061391d565b50829750879550505050505092915050565b600081519050919050565b600082825260208201905092915050565b6000819050602082019050919050565b61399c816135f5565b82525050565b60006139ae8383613993565b60208301905092915050565b6000602082019050919050565b60006139d282613967565b6139dc8185613972565b93506139e783613983565b8060005b83811015613a185781516139ff88826139a2565b9750613a0a836139ba565b9250506001810190506139eb565b5085935050505092915050565b600060a0820190508181036000830152613a3f81886138f2565b90508181036020830152613a5381876139c7565b90508181036040830152613a6781866139c7565b90508181036060830152613a7b81856139c7565b90508181036080830152613a8f81846139c7565b90509695505050505050565b600080fd5b600080fd5b7f4e487b7100000000000000000000000000000000000000000000000000000000600052604160045260246000fd5b613add82613671565b810181811067ffffffffffffffff82111715613afc57613afb613aa5565b5b80604052505050565b6000613b0f61355c565b9050613b1b8282613ad4565b919050565b600067ffffffffffffffff821115613b3b57613b3a613aa5565b5b613b4482613671565b9050602081019050919050565b82818337600083830152505050565b6000613b73613b6e84613b20565b613b05565b905082815260208101848484011115613b8f57613b8e613aa0565b5b613b9a848285613b51565b509392505050565b600082601f830112613bb757613bb6613a9b565b5b8135613bc7848260208601613b60565b91505092915050565b600060208284031215613be657613be5613566565b5b600082013567ffffffffffffffff811115613c0457613c0361356b565b5b613c1084828501613ba2565b91505092915050565b60006020820190508181036000830152613c3381846138f2565b905092915050565b60006080820190508181036000830152613c5581876138f2565b90508181036020830152613c6981866139c7565b90508181036040830152613c7d81856139c7565b90508181036060830152613c9181846139c7565b905095945050505050565b600060208284031215613cb257613cb1613566565b5b6000613cc0848285016137b3565b91505092915050565b613cd2816136dd565b82525050565b6000602082019050613ced6000830184613cc9565b92915050565b60008060408385031215613d0a57613d09613566565b5b600083013567ffffffffffffffff811115613d2857613d2761356b565b5b613d3485828601613ba2565b9250506020613d45858286016136fe565b9150509250929050565b613d58816135f5565b8114613d6357600080fd5b50565b600081359050613d7581613d4f565b92915050565b60008060408385031215613d9257613d91613566565b5b6000613da0858286016137b3565b9250506020613db185828601613d66565b9150509250929050565b600067ffffffffffffffff821115613dd657613dd5613aa5565b5b613ddf82613671565b9050602081019050919050565b6000613dff613dfa84613dbb565b613b05565b905082815260208101848484011115613e1b57613e1a613aa0565b5b613e26848285613b51565b509392505050565b600082601f830112613e4357613e42613a9b565b5b8135613e53848260208601613dec565b91505092915050565b60008060008060808587031215613e7657613e75613566565b5b6000613e84878288016137b3565b9450506020613e95878288016137b3565b9350506040613ea6878288016136fe565b925050606085013567ffffffffffffffff811115613ec757613ec661356b565b5b613ed387828801613e2e565b91505092959194509250565b600061012082019050613ef5600083018c613772565b613f02602083018b613772565b613f0f604083018a613cc9565b613f1c6060830189613cc9565b8181036080830152613f2e8188613682565b9050613f3d60a0830187613601565b613f4a60c0830186613601565b613f5760e0830185613601565b613f65610100830184613601565b9a9950505050505050505050565b60008060408385031215613f8a57613f89613566565b5b6000613f98858286016137b3565b9250506020613fa9858286016137b3565b9150509250929050565b7f4e487b7100000000000000000000000000000000000000000000000000000000600052602260045260246000fd5b60006002820490506001821680613ffa57607f821691505b60208210810361400d5761400c613fb3565b5b50919050565b60006060820190506140286000830186613772565b6140356020830185613cc9565b6140426040830184613772565b949350505050565b7f4e487b7100000000000000000000000000000000000000000000000000000000600052603260045260246000fd5b7f4e487b7100000000000000000000000000000000000000000000000000000000600052601160045260246000fd5b60006140b3826136dd565b91507fffffffffffffffffffffffffffffffffffffffffffffffffffffffffffffffff82036140e5576140e4614079565b5b600182019050919050565b600081905092915050565b60006141068261362b565b61411081856140f0565b9350614120818560208601613647565b80840191505092915050565b600061413882846140fb565b915081905092915050565b60008190508160005260206000209050919050565b6000815461416581613fe2565b61416f81866140f0565b9450600182166000811461418a576001811461419f576141d2565b60ff19831686528115158202860193506141d2565b6141a885614143565b60005b838110156141ca578154818901526001820191506020810190506141ab565b838801955050505b50505092915050565b60006141e78284614158565b915081905092915050565b600081905092915050565b50565b600061420d6000836141f2565b9150614218826141fd565b600082019050919050565b600061422e82614200565b9150819050919050565b60006020601f8301049050919050565b600082821b905092915050565b6000600883026142857fffffffffffffffffffffffffffffffffffffffffffffffffffffffffffffffff82614248565b61428f8683614248565b95508019841693508086168417925050509392505050565b6000819050919050565b60006142cc6142c76142c2846136dd565b6142a7565b6136dd565b9050919050565b6000819050919050565b6142e6836142b1565b6142fa6142f2826142d3565b848454614255565b825550505050565b600090565b61430f614302565b61431a8184846142dd565b505050565b5b8181101561433e57614333600082614307565b600181019050614320565b5050565b601f8211156143835761435481614143565b61435d84614238565b8101602085101561436c578190505b61438061437885614238565b83018261431f565b50505b505050565b600082821c905092915050565b60006143a660001984600802614388565b1980831691505092915050565b60006143bf8383614395565b9150826002028217905092915050565b6143d88261362b565b67ffffffffffffffff8111156143f1576143f0613aa5565b5b6143fb8254613fe2565b614406828285614342565b600060209050601f8311600181146144395760008415614427578287015190505b61443185826143b3565b865550614499565b601f19841661444786614143565b60005b8281101561446f5784890151825560018201915060208501945060208101905061444a565b8683101561448c5784890151614488601f891682614395565b8355505b6001600288020188555050505b505050505050565b60006144ad82856140fb565b91506144b982846140fb565b91508190509392505050565b600081519050919050565b600082825260208201905092915050565b60006144ec826144c5565b6144f681856144d0565b9350614506818560208601613647565b61450f81613671565b840191505092915050565b600060808201905061452f6000830187613772565b61453c6020830186613772565b6145496040830185613cc9565b818103606083015261455b81846144e1565b905095945050505050565b6000815190506145758161359c565b92915050565b60006020828403121561459157614590613566565b5b600061459f84828501614566565b91505092915050565b60006040820190506145bd6000830185613772565b6145ca6020830184613cc9565b9392505050565b7f4e487b7100000000000000000000000000000000000000000000000000000000600052601260045260246000fd5b7f4e487b7100000000000000000000000000000000000000000000000000000000600052605160045260246000fdfea2646970667358221220210e0fc824e7f7016a82980b164bb26afae2c2895a03900ebed2ccf954f4801364736f6c63430008140033",
  "linkReferences": {},
  "deployedLinkReferences": {}
}